:100000000C9434000C9451000C9451000C94510049
:100010000C9451000C9451000C9451000C9451001C
:100020000C9451000C9451000C9451000C9451000C
:100030000C9451000C9451000C9451000C945100FC
:100040000C9451000C9451000C9451000C945100EC
:100050000C9451000C9451000C9451000C945100DC
:100060000C9451000C94510011241FBECFEFD8E026
:10007000DEBFCDBF11E0A0E0B1E0E0E1FDE002C0F5
:1000800005900D92AC30B107D9F721E0ACE0B1E0BA
:1000900001C01D92A438B207E1F70E94E5010C945B
:1000A00086060C94000080917C00887F816080939C
:1000B0007C0080917A00806480937A0080917A003D
:1000C00086FDFCCF8091780090917900089580E4BE
:1000D00080937C0087E880937A0008950C94530005
:1000E000CF92DF92EF92FF920F931F93CF93DF9304
:1000F00000D000D0CDB7DEB700E20983C12CD12CEF
:1001000076010E945300837080FDFBCF823011F492
:100110006894C0F8CC0CDD1CEE1CFF1C198111503A
:1001200019831111EECFC701B6010E9426030E9468
:10013000D7026B017C010E94D702382F292FCB01F7
:10014000A32FB22FAA27BB277601DD24CC248C292C
:100150009D29AE29BF29AC01BD0137E07695679591
:10016000579547953A95D1F76C017D01EFE0F694EC
:10017000E794D794C794EA95D1F74C255D256E2571
:100180007F256C017D01F3E1F694E794D794C79441
:10019000FA95D1F74C255D256E257F256C017D01F3
:1001A00016E1F694E794D794C7941A95D1F74C25A5
:1001B0005D256E257F256C017D010AE1F694E794AB
:1001C000D794C7940A95D1F74C255D256E257F25D8
:1001D0006C017D012DE1F694E794D794C7942A959C
:1001E000D1F74C255D256E257F2577274695779598
:1001F000662755274427B695A795979587958A0131
:100200009B01082B192B2A2B3B2BC901B8010F90FE
:100210000F900F900F90DF91CF911F910F91FF9052
:10022000EF90DF90CF9008952FB7F8949AE0E5B162
:10023000EE7FE5B900000000000000000000EDE9DD
:10024000F1E03197F1F700000000E5B180FDE160D9
:1002500080FFEE7FE5B9089487959A9581F72FBFC7
:1002600008951F93CF93DF93EC0110E0FE01E10F9F
:10027000F11D8081811104C0DF91CF911F910895FC
:100280001F5F0E941401F2CF1092C5001092C400AB
:1002900088E18093C10086E08093C2000895909128
:1002A000C00095FFFCCF8093C6000895CF93DF93E5
:1002B000EC018991811103C0DF91CF9108950E94D3
:1002C0004F01F7CF8091C000881F8827881F0895AD
:1002D0000E9462018823E1F38091C6000895AF92E5
:1002E000BF92CF92DF92EF92FF920F931F93CF9323
:1002F000DF937C01C0E0862F8150990B8C010E9416
:100300006801D82FAC2EB12C6701CA0CDB1C8D30D4
:1003100019F50E9468018A3069F4F6011082DF91B4
:10032000CF911F910F91FF90EF90DF90CF90BF90F2
:10033000AF900895A016B10614F791E09C0FF60156
:10034000D083292F30E0F701E20FF31F2017310788
:1003500054F4CE5F8083D3CFA016B10684F6CF5F6E
:10036000F601D083CCCFC92FCACF0C944F01CF93C5
:10037000DF93CDB7DEB7FE013596419151919F01D4
:1003800068E770E08CE091E00E9448038CE091E027
:100390000E945601DF91CF910895CF93DF93CDB79F
:1003A000DEB7FE013596419151919F0168E770E0FB
:1003B0008CE091E00E9448038CE091E00E943101C2
:1003C000DF91CF9108950C946F01CDB7DEB7C9507E
:1003D000D2400FB6F894DEBF0FBECDBF0E944401DD
:1003E0000E9467008E010F5F1F4F80E092E0F801CE
:1003F0009C01119221503040E1F758ECE52EF12C90
:100400008FE19EE40197F1F700C000000E946E00AA
:10041000E82FF0E0EE0FFF1FE00FF11F80819181C8
:1004200001969183808391E0E91AF10849F789E008
:1004300091E09F938F930E94B70138010F900F9026
:10044000F12CE12C8E010F5F1D4F97E0392E24E037
:10045000A22E21E0B22E88248394912CF301C19026
:10046000D1903F01C114D10409F449C04E2C87E05A
:10047000582E852D052C000C990B4420C1F0F7E077
:10048000432D4519F5150CF440E050E0BC016F5FB9
:100490007F4F600F711F800F911F0E942F03842DCB
:1004A0008170805DF80187835A944694E2CF21E001
:1004B000250D30E0FFEFA9015F1614F440E050E095
:1004C0006FEF56162CF1F401E21BF30B9F01820F24
:1004D000931F60E370E0800F911F0E944103F801B9
:1004E0001086DF92CF921F930F93BF92AF920E941C
:1004F000B7010F900F900F900F900F900F90FFEF9C
:10050000EF1AFF0AE11421E0F20609F0A7CFFFCFAE
:1005100021E030E0DCCF8F929F92AF92BF92CF92DA
:10052000DF92EF92FF92CF93DF93EC0168817981A4
:100530008A819B81611571058105910521F464E231
:1005400079ED8BE597E02DE133EF41E050E00E943B
:10055000EC0549015A019B01AC01A7EAB1E40E94F4
:100560000B066B017C01ACEEB4EFA50194010E9477
:100570001906C60ED71EE81EF91EF7FE06C081E05A
:10058000C81AD108E10880E8F80AC882D982EA824C
:10059000FB82C701B6019F77DF91CF91FF90EF906B
:1005A000DF90CF90BF90AF909F908F9008958F92E3
:1005B0009F92AF92BF92CF92DF92EF92FF926091A3
:1005C0000001709101018091020190910301611578
:1005D00071058105910521F464E279ED8BE597E0E1
:1005E0002DE133EF41E050E00E94EC0549015A0152
:1005F0009B01AC01A7EAB1E40E940B066B017C01F0
:10060000ACEEB4EFA50194010E941906C60ED71EE8
:10061000E81EF91EF7FE06C081E0C81AD108E108FD
:1006200080E8F80AC0920001D0920101E092020134
:10063000F0920301C701B6019F77FF90EF90DF9022
:10064000CF90BF90AF909F908F90089560930001DE
:10065000709301018093020190930301089568173C
:10066000790768F4FB01DC01E40FF51FA40FB51F47
:1006700002C002900E9241505040D8F708950C9459
:100680004A05DC0101C06D9341505040E0F70895E8
:10069000AEE0B0E0EEE4F3E00C942C068C01FA013D
:1006A00086E08C831A83098377FF02C060E070E8DC
:1006B000615071097E836D83A901BF01CE0101964E
:1006C0000E9474034D815E8157FD0AC02F813885D9
:1006D000421753070CF49A01020F131FF8011082FE
:1006E0002E96E4E00C944806ABE0B0E0EAE7F3E0D5
:1006F0000C941E067C013B018A01FC0117821682C4
:10070000838181FFB9C19AE0292ECE0101965C0157
:10071000F7019381F30193FD859193FF81913F014F
:10072000882309F446C1853239F493FD859193FFFE
:1007300081913F01853229F4B70190E00E945E0566
:10074000E7CF912C412C512CFFE1F51538F08B327D
:1007500009F188F4803201F1833221F157FC3AC06B
:1007600020ED280F2A3040F556FE1FC0929C200D28
:100770001124922E06C08D3291F0803379F768945F
:1007800050F8F30193FD859193FF81913F01811111
:10079000DBCF20C0689451F8689452F8F2CF689487
:1007A00053F8EFCF689454F8ECCF429C200D1124FD
:1007B000422E689455F8E5CF8E3229F456FCF9C0E4
:1007C000689456F8DECF8C3619F4689457F8D9CF70
:1007D0008836B9F2982F9F7D95549330C0F08336B8
:1007E000A1F18337C1F1833509F05BC0F801C190F5
:1007F000D1908F01692D70E056FC02C06FEF7FEF42
:10080000C6010E943F054C01689457F80AC00C5F6E
:100810001F4F2FE3298388248394912C6501E8944A
:1008200057F853FC04C04814190409F018F5342C87
:100830008114910431F5332009F46ACFB70180E2C5
:1008400090E00E945E053A94F6CFF801808189839A
:100850000E5F1F4FE0CFF801C190D1908F01692D3D
:1008600070E056FC02C06FEF7FEFC6010E94530597
:100870004C01D5CFB70180E290E00E945E054A941A
:10088000D2CFF60157FC859157FE81916F01B701D8
:1008900090E00E945E0531103A94F1E08F1A9108C1
:1008A000C7CF843619F0893609F074C0F80157FEB5
:1008B0006AC061917191819191918F01252D2F765F
:1008C000D22E97FF09C090958095709561957F4FC6
:1008D0008F4F9F4F6894D7F82AE030E0A5010E941F
:1008E0008E05C82ECA188C2C5D2CD6FE0CC0E89440
:1008F00050F8C91440F4D4FE05C0D2FC03C0FD2D4D
:10090000FE7E5F2E892C54FE8FC0FE01EC0DF11D82
:100910008081803309F081C0252D297E522E852DBE
:100920008870382E53FC8FC050FE89C09C2C8414D4
:1009300018F44C0C942C981854FE8BC0B70180E32B
:1009400090E00E945E0552FE09C088E790E051FEEB
:1009500002C088E590E0B7010E945E05C91408F462
:1009600084C0CA94D12C9FEFC91AD90ACA0CDB1CC7
:10097000F60182916F01B70190E00E945E05AC1410
:10098000BD04B1F758CF61917191072E000C880B0F
:10099000990B93CFD52CE894D4F82AE030E0853732
:1009A00039F1952D997FD92E8F3601F148F488358C
:1009B000A9F0F701868197812B96E2E10C943A0623
:1009C000803749F08837A9F7D4FE02C06894D2F87E
:1009D00020E130E00DC06894D4F8F6CF54FE03C097
:1009E000E92FE660DE2E20E132E002C028E030E0B0
:1009F000F801D7FE0DC061917191819191918F01A4
:100A0000A5010E948E05C82ECA18E894D7F86BCFAE
:100A10006191719190E080E0F2CF52FC02C083942A
:100A20007ECF839483947BCF852D867809F477CF0E
:100A3000F6CFB70180E290E00E945E0583948414B3
:100A4000C0F3312C79CF342C3818841408F474CFC7
:100A5000F8CF852D867809F481CF8BE251FE80E2B4
:100A600057FC8DE2B70190E077CFB70180E390E0CB
:100A70000E945E059A9472CF8FEF9FEF9DCFFC018D
:100A80000590615070400110D8F7809590958E0FB9
:100A90009F1F0895FB01DC0102C001900D9241509F
:100AA0005040D8F70895FC0161507040019001104A
:100AB000D8F7809590958E0F9F1F08950F931F93E1
:100AC000CF93DF93182F092FEB018B8181FD09C094
:100AD0001FEF0FEF812F902FDF91CF911F910F917B
:100AE000089582FF14C02E813F818C819D8128173B
:100AF00039073CF4E881F981CF0101969983888315
:100B000010838E819F8101969F838E83E3CFE8853A
:100B1000F985812F0995892BA1F3DACFFA01AA274C
:100B2000283051F1203181F1E8946F936E7F6E5F30
:100B30007F4F8F4F9F4FAF4FB1E03ED0B4E03CD0DE
:100B4000670F781F891F9A1FA11D680F791F8A1FC1
:100B5000911DA11D6A0F711D811D911DA11D20D028
:100B600009F468943F912AE0269F11243019305DE2
:100B70003193DEF6CF010895462F4770405D4193D3
:100B8000B3E00FD0C9F7F6CF462F4F70405D4A3320
:100B900018F0495D31FD4052419302D0A9F7EACFE8
:100BA000B4E0A6959795879577956795BA95C9F717
:100BB00000976105710508959B01AC010A2E06940A
:100BC0005795479537952795BA95C9F7620F731FC3
:100BD000841F951FA01D0895052E97FB1EF40094F9
:100BE0000E94030657FD07D00E94550607FC03D05C
:100BF0004EF40C94030650954095309521953F4F47
:100C00004F4F5F4F089590958095709561957F4FF8
:100C10008F4F9F4F08950E947706A59F900DB49F18
:100C2000900DA49F800D911D11240895B7FF0C9481
:100C30000B060E940B06821B930B08952F923F9286
:100C40004F925F926F927F928F929F92AF92BF92DC
:100C5000CF92DF92EF92FF920F931F93CF93DF9388
:100C6000CDB7DEB7CA1BDB0B0FB6F894DEBF0FBEE5
:100C7000CDBF09942A88398848885F846E847D8432
:100C80008C849B84AA84B984C884DF80EE80FD8034
:100C90000C811B81AA81B981CE0FD11D0FB6F894AA
:100CA000DEBF0FBECDBFED010895A1E21A2EAA1B33
:100CB000BB1BFD010DC0AA1FBB1FEE1FFF1FA2170C
:100CC000B307E407F50720F0A21BB30BE40BF50B09
:100CD000661F771F881F991F1A9469F76095709592
:100CE000809590959B01AC01BD01CF010895A29F15
:100CF000B001B39FC001A39F700D811D1124911DF0
:100D0000B29F700D811D1124911D0895F894FFCF9D
:0C0D10000100000025732025640D0A007E
:00000001FF
