:100000000C94E7030C9404040C9404040C9404046E
:100010000C9404040C9404040C9404040C94040440
:100020000C9404040C9404040C9404040C94040430
:100030000C9404040C9404040C9404040C94040420
:100040000C9404040C9404040C9404040C94040410
:100050000C9404040C9404040C9404040C94040400
:100060000C9404040C940404010204081020408041
:100070001B36637C777BF26B6FC53001672BFED735
:10008000AB76CA82C97DFA5947F0ADD4A2AF9CA421
:1000900072C0B7FD9326363FF7CC34A5E5F171D891
:1000A000311504C723C31896059A071280E2EB277F
:1000B000B27509832C1A1B6E5AA0523BD6B329E3A2
:1000C0002F8453D100ED20FCB15B6ACBBE394A4C82
:1000D00058CFD0EFAAFB434D338545F9027F503C02
:1000E0009FA851A3408F929D38F5BCB6DA2110FF2E
:1000F000F3D2CD0C13EC5F974417C4A77E3D645D2B
:10010000197360814FDC222A908846EEB814DE5EB7
:100110000BDBE0323A0A4906245CC2D3AC6291950B
:10012000E479E7C8376D8DD54EA96C56F4EA657A47
:10013000AE08BA78252E1CA6B4C6E8DD741F4BBDE8
:100140008B8A703EB5664803F60E613557B986C195
:100150001D9EE1F8981169D98E949B1E87E9CE55B2
:1001600028DF8CA1890DBFE6426841992D0FB0545C
:10017000BB1646696E6973686564207072696E7437
:10018000696E670D0A00506C656173652073746158
:100190007274207468652061757468656E74696333
:1001A0006174696F6E2070726F6365737320776915
:1001B0007468207468617420737465700D0A005946
:1001C0006F752068617665206E6F74207265717539
:1001D000657374656420616E2061757468656E7402
:1001E00069636174696F6E206E6F6E63650D0A00DE
:1001F000596F7572206E6F6E6365206973206E6F24
:100200007720696E76616C69642C20706C6561730F
:100210006520726571756573742061206E65772045
:100220006F6E6520746F20706572666F726D2061ED
:10023000757468656E7469636174696F6E0D0A0028
:1002400041757468656E7469636174696F6E20735B
:1002500075636365737366756C2061732061646D8B
:10026000696E6973747261746F720D0A00417574FE
:1002700068656E7469636174696F6E20737563631A
:1002800065737366756C2061732070726976696C32
:100290006567656420757365720D0A004175746841
:1002A000656E7469636174696F6E207375636365ED
:1002B000737366756C20617320757365720D0A0027
:1002C000506C65617365207375626D697420796F18
:1002D000757220726573706F6E736520746F20661F
:1002E000696E697368207468652061757468656EED
:1002F0007469636174696F6E2070726F6365737384
:100300000D0A0047657474696E6720636C6F7365CE
:100310007221215269736375726520697320636F5E
:100320006F6C2166756E6374696F6E2073656E64A1
:100330005F6963735F636F6D6D616E64206E6F7470
:1003400020696D706C656D656E7465640D0A006979
:100350006E76616C6964206C656E6774680D0A0066
:1003600064697361626C696E67207465726D696E31
:10037000616C0D0A00737461636B2062756666655B
:1003800072206F766572666C6F7720646574656342
:100390007465640D0A0054686520696E7365727433
:1003A000656420636F6D6D616E64207761730D0A03
:1003B000000D0A0000496E7365727420696E7374D3
:1003C00072756374696F6E206F70636F64650D0A78
:1003D000000D0A00496E7365727420696E73747241
:1003E000756374696F6E206C656E67746820286D24
:1003F000696E20302C206D61782034290D0A00436D
:10040000616C6C696E6720656570726F6D5F736596
:10041000745F6D656D6F72795F70726F7465637410
:1004200065640D0A0043616C6C696E6720656570D8
:10043000726F6D5F7365745F6D656D6F72795F75F7
:100440006E70726F7465637465640D0A004D435578
:100450002066616D696C790941544D65676133327D
:1004600038500D0A4669726D7761726509312E3216
:100470002E302D414C5048410D0A4275696C642064
:10048000646174650930312D31302D323031350DD4
:100490000A4275696C6420666C616773092D4F2090
:1004A0002B78202D2D656570207277202D2D70679B
:1004B0006D656D2072202D2D64656275670D0A0DC6
:1004C0000A00506C6561736520696E7365727420F3
:1004D000796F757220544F54502075736572207473
:1004E0006F6B656E0D0A000D0A00436F6E746163D9
:1004F00074696E6720544F54502076616C69646152
:1005000074696F6E207365727665720D0A00546FA0
:100510006B656E2076616C6964617465640D0A00B8
:100520000D0A00696E737472756374696F6E206171
:100530007420756E7472757374656420616464727E
:1005400065737320617474656D7074656420746F75
:1005500020726561642066726F6D20756E617574BE
:10056000686F72697A6564206D656D6F727920615C
:100570006464726573730D0A0066756E6374696FE7
:100580006E20746F74705F76616C69646174696FFA
:100590006E206E6F7420696D706C656D656E74652C
:1005A000640D0A0072657475726E696E6720310D94
:1005B0000A00696E742070617273696E6720726FD1
:1005C0007574696E6520646574656374656420691B
:1005D0006E76616C696420696E7075742073697AD7
:1005E000650D0A00696E742070617273696E672010
:1005F000726F7574696E6520646574656374656493
:1006000020696E76616C69642063686172616374ED
:100610006572730D0A00506C6561736520656E74B8
:1006200065722061206E756D62657220736D616CFC
:100630006C6572207468616E20350D0A00496E7019
:100640007574206973206E6F7420612076616C6907
:1006500064206E756D626572200D0A000D0A0048F7
:100660006F77206D616E79207661726961626C6569
:10067000732073686F756C64206265207072696E98
:100680007465643F20286D61782035290D0A000DBE
:100690000A0009480973686F772068656C700D0A55
:1006A0000D0A000958096C6F67206F75740D0A00F8
:1006B000094B0972656164207468652041646D6945
:1006C0006E206B65790D0A000956096368616E67D3
:1006D00065207468652076616C766520737461743A
:1006E000650D0A09530973656E6420636F6D6D6152
:1006F0006E6420746F206261636B656E6420494391
:1007000053206E6574776F726B0D0A00095209727F
:1007100065616420666C61736820636F6E666967EB
:100720000D0A0950097072696E742074686520762C
:10073000616C76652073746174650D0A0009410966
:1007400061757468656E7469636174650D0A095238
:1007500078787878097375626D6974207265737042
:100760006F6E7365202878787878203D20726573E5
:10077000706F6E736520696E20686578290D0A09AF
:100780005609726574726965766520766172696171
:10079000626C65730D0A00506F737369626C65203B
:1007A000636F6D6D616E64733A0D0A00340EFC0D5B
:1007B000FC0DAA0EFC0DFC0DFC0DFC0D780EFC0DC5
:1007C0000C0E9E0EFC0DFC0D880EFC0D0F0E112460
:1007D0001FBECFEFD8E0DEBFCDBF12E0A0E0B1E09A
:1007E000E4E5FDE202C005900D92A43BB107D9F704
:1007F00023E0A4EBB2E001C01D92A734B207E1F7F9
:100800000E9406040C94A8160C940000CF93DF936A
:10081000CDB7DEB784E190E00E94090F9093B50256
:100820008093B40210923F0310923E0310923D0356
:1008300010923C030E94690485E290E0FC01208153
:1008400085E290E02160FC01208384E290E0FC01DD
:10085000208184E290E02160FC0120830E941E053B
:100860000E948B0B0E94E90C80E090E0DF91CF9119
:1008700008952FB7F8949AE0E5B1EE7FE5B900004E
:100880000000000000000000EDE9F1E03197F1F711
:1008900000000000E5B180FDE16080FFEE7FE5B97A
:1008A000089487959A9581F72FBF08951F93CF934A
:1008B000DF93EC0110E0FE01E10FF11D8081811159
:1008C00004C0DF91CF911F9108951F5F0E943904EA
:1008D000F2CF1092C5001092C40088E18093C1004D
:1008E00086E08093C20008959091C00095FFFCCFF0
:1008F0008093C6000895CF93DF93EC018991811115
:1009000003C0DF91CF9108950E947404F7CF8091C6
:10091000C000881F8827881F08950E9487048823A5
:10092000E1F38091C6000895AF92BF92CF92DF921B
:10093000EF92FF920F931F93CF93DF937C01C0E060
:10094000862F8150990B8C010E948D04D82FAC2EDC
:10095000B12C6701CA0CDB1C8D3019F50E948D0487
:100960008A3069F4F6011082DF91CF911F910F91C7
:10097000FF90EF90DF90CF90BF90AF900895A016BA
:10098000B10614F791E09C0FF601D083292F30E0D7
:10099000F701E20FF31F2017310754F4CE5F808375
:1009A000D3CFA016B10684F6CF5FF601D083CCCFAB
:1009B000C92FCACF0C947404CF93DF93CDB7DEB7A1
:1009C000FE013596419151919F0168E770E086EBF9
:1009D00092E00E944A1386EB92E00E947B04DF9132
:1009E000CF910895CF93DF93CDB7DEB7FE01359653
:1009F000419151919F0168E770E086EB92E00E947F
:100A00004A1386EB92E00E945604DF91CF9108953D
:100A10000C94940480917C00887F816080937C009A
:100A200080917A00806480937A0080917A0086FDBC
:100A3000FCCF8091780090917900089580E48093B4
:100A40007C0087E880937A0008950C940A05CF9281
:100A5000DF92EF92FF920F931F93CF93DF9300D01B
:100A600000D0CDB7DEB700E20983C12CD12C7601CE
:100A70000E940A05837080FDFBCF823011F46894D8
:100A8000C0F8CC0CDD1CEE1CFF1C19811150198321
:100A90001111EECFC701B6010E94CE100E947F1047
:100AA0006B017C010E947F10382F292FCB01A32FCF
:100AB000B22FAA27BB277601DD24CC248C299D29BF
:100AC000AE29BF29AC01BD0137E0769567955795F2
:100AD00047953A95D1F76C017D01EFE0F694E794E4
:100AE000D794C794EA95D1F74C255D256E257F25CF
:100AF0006C017D01F3E1F694E794D794C794FA95DD
:100B0000D1F74C255D256E257F256C017D0116E111
:100B1000F694E794D794C7941A95D1F74C255D25A0
:100B20006E257F256C017D010AE1F694E794D79448
:100B3000C7940A95D1F74C255D256E257F256C015C
:100B40007D012DE1F694E794D794C7942A95D1F7C7
:100B50004C255D256E257F25772746957795662759
:100B600055274427B695A795979587958A019B01A8
:100B7000082B192B2A2B3B2BC901B8010F900F9082
:100B80000F900F90DF91CF911F910F91FF90EF90F9
:100B9000DF90CF900895242F4AE00C941406CF9351
:100BA000DF9300D000D0CDB7DEB7FC018081898310
:100BB00084818A8380858B8384858C83862F90E0D3
:100BC0006370A1E0B0E0AC0FBD1FA60FB11D2C916A
:100BD0002083DC011196A370BB2721E030E02C0FAD
:100BE0003D1FA20FB31F2C912483DC011296A3702A
:100BF000BB2721E030E02C0F3D1FA20FB31F2C912B
:100C00002087039683709927A1E0B0E0AC0FBD1F49
:100C10008A0F9B1FDC018C9184870F900F900F909F
:100C20000F90DF91CF9108952F923F924F925F9254
:100C30006F927F928F929F92AF92BF92CF92DF92EC
:100C4000EF92FF920F931F93CF93DF93CDB7DEB751
:100C500064970FB6F894DEBF0FBECDBF7C016B0169
:100C60002B8B3C014C0180E1880E911CF701819196
:100C7000DB019D91BD019F01215031098927D901D7
:100C80008C93E815F90599F7222423944F5F4C8B38
:100C90008C898219823008F045C0D701ED91F0E0CF
:100CA000EE58FF4F2491CD010197FC012083A81538
:100CB000B905A1F761E0C70101960E94CF0562E086
:100CC000C70102960E94CF0563E0C70103960E9408
:100CD000CF0580E1289EF0011124EC0DFD1DD3010C
:100CE0008D913D019191119789278C936814790416
:100CF000B1F764960FB6F894DEBF0FBECDBFDF919B
:100D0000CF911F910F91FF90EF90DF90CF90BF9008
:100D1000AF909F908F907F906F905F904F903F909B
:100D20002F9008958E010F5F1F4FC801D701ED91DD
:100D3000F0E0EE58FF4F2491FC012193CF01A8155C
:100D4000B905A9F761E0CE0102960E94CF0562E0E5
:100D5000CE0103960E94CF0563E0CE0104960E9467
:100D6000CF052801F0E14F0E511C5701D8013C90EE
:100D700011968C911197382612968C9112973826DD
:100D800013968C913826BB89B13009F46EC0F801F6
:100D90006081818168274BE182E00E94F007D801E1
:100DA0009C9193259827F501908311966C9111974A
:100DB00012968C9168274BE182E00E94F007D801DF
:100DC00011969C9193259827F5019183FB89F13029
:100DD00061F40E947F10462F572F53705A8B498B16
:100DE00089899A89892B09F052C0D80112966C9191
:100DF000129713968C9168274BE182E00E94F007CE
:100E0000F801928193259827D50112969C936381CE
:100E1000808168274BE182E00E94F007F80193810E
:100E200039263826D50113963C920C5F1F4FB4E04B
:100E3000AB0EB11C0415150509F098CFE0E12E9E0C
:100E4000D0011124AD014C0D5D1DF7018191DA0136
:100E50009D91AD019F01215031098927D9018C93C2
:100E6000E815F90599F7239413CF0E947F10462FB8
:100E7000572F53705A8B498B89899A89892B09F48A
:100E800086CF89899A8901979A8B898BF5CF898931
:100E90009A8901979A8B898BA3CFCF92DF92EF9299
:100EA000FF920F931F93CF93DF93D42FC52F7B0116
:100EB00045E0F694E7944A95E1F70E2D17E01E0DF4
:100EC000110F110FAB0163E0569547956A95E1F755
:100ED000BC018D2F9C2F0E9409132D2F3C2FE70161
:100EE000DD27CC0FDD1FCC0FDD1FC20FD31F7E2DE2
:100EF0005E2D60E0511748F0DF91CF911F910F9167
:100F0000FF90EF90DF90CF900895FE013497F0802E
:100F10004181D280E3808F2D942FAD2DBE2D5717A8
:100F200071F10830E1F4E52FE770E430C1F4EF2D02
:100F3000F0E0EE58FF4FE4918E2FE42FF0E0EE58F2
:100F4000FF4FE4919E2FED2DF0E0EE58FF4FE4911E
:100F5000AE2FEE2DF0E0EE58FF4FE491BE2FF901D9
:100F6000C190D190E190F1909F018C259D25AE25F7
:100F7000BF2589939993A993B9935F5FBBCF752FD1
:100F8000700FE42FF0E0EE58FF4F4491ED2DF0E0AC
:100F9000EE58FF4FE4919E2FEE2DF0E0EE58FF4FFC
:100FA000E491AE2FEF2DF0E0EE58FF4FE491BE2F0D
:100FB000E62FF0E0E859FF4FE491842F8E276F5F12
:100FC000CECFAB0160E870E00C944D07AB0160EC54
:100FD00070E00C944D07AB0160E071E00C944D079C
:100FE000782F8827769531F008F48627660F08F465
:100FF0006427F8CF08F486270895CF92DF92EF9206
:10100000FF920F931F93CF93DF93182FC0E0D1E08F
:1010100000E08FE2C82E81E0D82E011317C082E7CE
:1010200091E09F938F938AE391E09F938F930E9427
:10103000DC040F900F900F900F90DF91CF911F91D4
:101040000F91FF90EF90DF90CF900895E880F980A6
:10105000F701808190E00E94E912892B81F08B8159
:101060008F938A818F93FF92EF92DF92CF920E94AB
:10107000DC040F900F900F900F900F900F900F5F68
:101080002496CBCF6F927F928F929F92AF92BF9216
:10109000CF92DF92EF92FF920F931F93CF93DF9344
:1010A000CDB7DEB7C05DD1090FB6F894DEBF0FBE75
:1010B000CDBF7A01122F43E153E0222331F040E00B
:1010C00055E3223011F443E053E0DE01AF54BF4F4B
:1010D00030E020E04D01FA01E20FF31FE491ED93BF
:1010E0002F5F3F4F20313105B1F769837A838B83BE
:1010F0009C836E0181ECC80ED11CF6013496CE01A2
:1011000001963C01DC012C9101965F012293CE16E1
:10111000DF06C1F7F60134968CE0DF011D928A9557
:10112000E9F7B301C4010E94E107402FB301C601F2
:101130000E94CB0580E1F40111928A95E9F7F6014E
:101140003C968FE0A80EB11C40E050E0BA01762F2B
:10115000652F542F44278191482BAE16BF06B9F74F
:10116000111109C06F707727D7014D935D936D936F
:101170007C93139707C01230D9F0F7014083518355
:1011800062837383C053DF4F0FB6F894DEBF0FBE88
:10119000CDBFDF91CF911F910F91FF90EF90DF9026
:1011A000CF90BF90AF909F908F907F906F90089559
:1011B0007727DACF0F93CF93DF93CDB7DEB7609762
:1011C0000FB6F894DEBF0FBECDBF81E080933C0325
:1011D00010923B030E9427056093370370933803F6
:1011E0008093390390933A0300E020E0AE014F5F13
:1011F0005F4F0E9442088091370390913803A0917D
:101200003903B0913A0301E021E0AE014B5F5F4F3B
:10121000BC01CD010E9442088091370390913803B0
:10122000A0913903B0913A038D879E87AF87B88B21
:1012300000E022E0AE01475F5F4FBC01CD010E949C
:1012400042088C818F938B818F938A818F938981C0
:101250008F938BEE91E09F938F931F9289E08F93F2
:101260008EE293E09F938F930E941A1380913A032A
:101270008F93809139038F93809138038F9380915E
:1012800037038F938FEE91E09F938F930E94DC043E
:1012900080EC92E09F938F938AE391E09F938F93EA
:1012A0000E94DC040FB6F894DEBF0FBECDBF60967F
:1012B0000FB6F894DEBF0FBECDBFDF91CF910F9177
:1012C00008952F923F924F925F926F927F928F92EA
:1012D0009F92AF92BF92CF92DF92EF92FF920F93C5
:1012E0001F93CF93DF93CDB7DEB76E970FB6F89409
:1012F000DEBF0FBECDBF80913C03813009F0EAC054
:101300008091B4029091B50240E150E070E060E05D
:1013100001960E94E711B62EA72E582E492ECE0117
:1013200001966C0110E0382E2D2C8AE3E82E81E026
:10133000F82EBD86AE865F86488AB98AAA8A5B8AFD
:101340004C8A4E0191E1890E911C3E01A5E16A0E85
:10135000711C7A8E698E8091370390913803A09129
:101360003903B0913A0300E020E0432D522DBC0137
:10137000CD010E9442088091370390913803A091DB
:101380003903B0913A0301E021E0AE014B5F5F4FBA
:10139000BC01CD010E94420880913703909138032F
:1013A000A0913903B0913A038B8F9C8FAD8FBE8F84
:1013B00002E022E0AE01475F5F4FBC01CD010E9419
:1013C0004208F60180819181A281B3818D879E8739
:1013D000AF87B88B8D8B9E8BAF8BB88FD4019D91CF
:1013E0004D01F30181913F01981317C0898D9A8DAA
:1013F0008A179B0709F0AFCF01E000933F0311115B
:1014000048C0ACE9B2E0BF93AF93FF92EF920E9465
:10141000DC040F900F900F900F901F5F84E0C80EB8
:10142000D11C133009F085CF80913F03811118C082
:1014300080913B038F5F80933B038F3F09F041C056
:1014400010923C0380EF91E09F938F938AE391E0A9
:101450009F938F930E94DC040F900F900F900F903A
:101460006E960FB6F894DEBF0FBECDBFDF91CF9161
:101470001F910F91FF90EF90DF90CF90BF90AF90B2
:101480009F908F907F906F905F904F903F902F90A4
:101490000895123059F48DE692E09F938F93FF9256
:1014A000EF920E94DC0400933E03B3CFE0E4F2E04D
:1014B000FF93EF93FF92EF920E94DC0400933D03B1
:1014C000A8CF85E092E09F938F930E94DC040F9059
:1014D0000F90C6CF8FEB91E09F938F930AE311E0BB
:1014E0001F930F930E94DC0486E891E09F938F93F3
:1014F0001F930F930E94DC040FB6F894DEBF0FBE5B
:10150000CDBFAECF83E293E09F938F938AE391E0C8
:101510009F938F930E94F2040F900F900F900F9063
:101520000895AF92BF92CF92DF92EF92FF920F9306
:101530001F93CF93DF9300D000D000D00F92CDB790
:10154000DEB788EC8F839E012F5F3F4F59013F9399
:101550002F9307E012E01F930F930E94DC04CE014B
:1015600007969F938F931F930F930E94DC0484ED43
:1015700093E09F938F930AE311E01F930F930E94D0
:10158000DC0464E18091B4029091B5020E940805E8
:1015900081ED93E09F938F931F930F930E94DC0440
:1015A0008091B4029091B5020FB6F894DEBF0FBEE1
:1015B000CDBFFC012081222309F449C021912111D2
:1015C00040C04AE050E070E060E00E94E7116B012B
:1015D0007C01FF928F93DF926F938CE092E09F9358
:1015E0008F930E94DC0485EB93E09F938F930AE333
:1015F00011E01F930F930E94DC0484EB93E09F9310
:101600008F931F930F930E94DC0461E06C0DC50162
:101610000E94080581EB93E09F938F931F930F9394
:101620000E94DC0486E993E09F938F931F930F93AE
:101630000E94DC040FB6F894DEBF0FBECDBF10E0F1
:101640001EC02053330B2A30310508F4B7CF8FE486
:1016500093E09F938F938AE391E09F938F930E94EF
:10166000F2040F900F900F900F9039C0F501E10F29
:10167000F11D17FDFA9580810E94DA041F5F812F0A
:10168000012E000C990BAA0BBB0B8C159D05AE050A
:10169000BF0560F386E992E09F938F930E94DC047C
:1016A0008F810F900F90883CC1F085E793E09F9366
:1016B0008F930AE311E01F930F930E94F20480E6D8
:1016C00093E09F938F931F930F930E94F2040FB6A2
:1016D000F894DEBF0FBECDBFFFCF0E94820A2796CF
:1016E0000FB6F894DEBF0FBECDBFDF91CF911F9133
:1016F0000F91FF90EF90DF90CF90BF90AF90089543
:10170000CF93DF93CDB7DEB786E290E00E94E81575
:10171000DF91CF910895CF93DF93CDB7DEB78FEFF1
:1017200093E0292F2F938F9386E291E0892F8F9357
:1017300086E291E08F930E94DC040F900F900F904F
:101740000F9061E086E290E00E94F0150000DF91CA
:10175000CF910895CF93DF93CDB7DEB785E294E0C4
:10176000292F2F938F9386E291E0892F8F9386E222
:1017700091E08F930E94DC040F900F900F900F90D8
:1017800060E086E290E00E94F0150000DF91CF91CA
:101790000895CF93DF93CDB7DEB7A4970FB6F89433
:1017A000DEBF0FBECDBF81E08F838DE494E09F8FBD
:1017B0008E8F82EC94E0292F2F938F9389E291E012
:1017C000892F8F9389E291E08F930E94DC040F9020
:1017D0000F900F900F90CE010A9667E10E940805C6
:1017E00087EE94E0292F2F938F9389E291E0892F40
:1017F0008F9389E291E08F930E94DC040F900F9009
:101800000F900F908AEE94E0292F2F938F9389E207
:1018100091E0892F8F9389E291E08F930E94DC04FD
:101820000F900F900F900F90CE010A960E94C81251
:101830009C01990F440B550B29A33AA34BA35CA31E
:1018400069A17AA18BA19CA10E94B30C882309F401
:1018500080C08EE095E0292F2F938F9389E291E04D
:10186000892F8F9389E291E08F930E94DC040F907F
:101870000F900F900F908E8D9F8D9C012F5F3F4F8B
:101880003F8F2E8F9A83898389819A81FC0184916D
:101890008B838B81898759C00E94800B88878885BC
:1018A000813031F48E8D9F8D8130954308F01F82F9
:1018B0008F81813021F58985882F90E0292F2F9302
:1018C0008F938CE291E0892F8F938CE291E08F933C
:1018D0000E94DC040F900F900F900F908E8D9F8DC3
:1018E0009C012F5F3F4F3F8F2E8F9D838C838C8178
:1018F0009D81FC0184918E838E81898726C080E240
:1019000095E0292F2F938F9389E291E0892F8F9370
:1019100089E291E08F930E94DC040F900F900F906A
:101920000F9083E295E0292F2F938F9389E291E026
:10193000892F8F9389E291E08F930E94F2040F9098
:101940000F900F900F90000004C08985882309F044
:10195000A3CF0000A4960FB6F894DEBF0FBECDBF94
:10196000DF91CF910895CF93DF9300D000D0CDB712
:10197000DEB769837A838B839C8389E795E0292F7F
:101980002F938F9389E291E0892F8F9389E291E0E1
:101990008F930E94F2040F900F900F900F9084EAA3
:1019A00095E0292F2F938F9389E291E0892F8F93D0
:1019B00089E291E08F930E94F2040F900F900F90B4
:1019C0000F9081E00F900F900F900F90DF91CF91CB
:1019D0000895CF93DF93CDB7DEB76E970FB6F89427
:1019E000DEBF0FBECDBF88E192E09F938F938AE365
:1019F00092E09F938F930E94DC0487E997E09F9386
:101A00008F930AE311E01F930F930E94DC048DE390
:101A100097E09F938F931F930F930E94DC0482E9BA
:101A200096E09F938F931F930F930E94DC040FB651
:101A3000F894DEBF0FBECDBF85E5E82E82E0F82E1C
:101A40009AE1792ECE0101965C012AE3C22E22E0B2
:101A5000D22E4C0139E8232E32E0332E4CE7442EAF
:101A600042E0542E64E18091B4029091B5020E944C
:101A70000805AFE8B6E0BF93AF931F930F930E94A2
:101A8000DC040F900F900F900F9080913F03A09176
:101A9000B402B091B5028111B6C08C91813419F4B1
:101AA0000E94DA08DFCF823519F40E946109DACF8B
:101AB000863509F081C08FE596E09F938F931F9341
:101AC0000F930E94DC0464E18091B4029091B5020E
:101AD0000E9408058CE596E09F938F931F930F93C8
:101AE0000E94DC048091B4029091B502DC010D905B
:101AF0000020E9F79D0121503109281B390BFC0119
:101B00000FB6F894DEBF0FBECDBF50E040E04217E5
:101B100053076CF0FC0140814D3219F4223031053D
:101B200069F12130310551F182EB95E00BC06190F4
:101B3000A62DA053BB0B1A97F0F0BDE26B16D9F09F
:101B400084EE95E09F938F931F930F930E94F2046E
:101B50000F900F900F900F908DE396E09F938F93CF
:101B60001F930F930E94DC0486E196E09F938F936E
:101B70001F930F9339C04F5F5F4FC9CF4AE050E0CA
:101B800070E060E00E94D710662EF5E0F61724F3AF
:101B9000862D062C000C990B9F936F928DE392E09B
:101BA0009F938F930E94DC04862D0E94FD070F9067
:101BB0000F900F900F9056CF8834F1F487E997E09B
:101BC0009F938F931F930F930E94DC048DE397E004
:101BD0009F938F931F930F930E94DC0482E996E0FA
:101BE0009F938F931F930F930E94DC040FB6F8947A
:101BF000DEBF0FBECDBF36CFBF93AF93FF92EF9244
:101C00000E94DC04D4CFEC91E854E131A8F7F0E075
:101C1000EA52FC4F0C94030F0E94C90B23CF109281
:101C20003F0310923D0310923E0388E192E09F93A0
:101C30008F93DF92CF920E94DC0487E997E09F9315
:101C40008F931F930F930E94DC048DE397E09F9383
:101C50008F931F930F930E94DC0482E996E09F9379
:101C60008F931F930F93C0CF87E997E09F938F9334
:101C70001F930F930E94DC048CE097E09F938F9357
:101C80001F930F930E94DC040FB6F894DEBF0FBEC3
:101C9000CDBF80913E03813021F080913D038130A2
:101CA00061F488EC96E09F938F931F930F930E94AB
:101CB000DC040F900F900F900F9080913D038823CC
:101CC00061F080EB96E09F938F931F930F930E9498
:101CD000DC040F900F900F900F9083EA96E09F9393
:101CE0008F931F930F930E94DC0482E996E03ECF0E
:101CF00080914003811109C08DE692E09F938F93FC
:101D00000E94DC040F900F90ADCE5F924F92F8CFFF
:101D100080913E03813029F080913D03813009F0AC
:101D20006BCF80914003811106C081E08093400316
:101D30003F922F92E5CF10924003FACF80913E035D
:101D4000813029F080913D03813009F055CF0E9408
:101D5000910A88CE60903D0351E065124DCF89E92C
:101D600092E09F938F930E94DC040F900F901B8E44
:101D70001C8E1D8E1E8E8B8D9C8DAD8DBE8D803AE2
:101D80009B4BAD40B10538F141EB52E05F934F936F
:101D90000E94DC040F900F90862D6AE00E94F70EDF
:101DA000911114C0879DB0011124605F7A4C4AE103
:101DB00050E0C4010E94FA12BF92AF92DF92CF921C
:101DC0000E94DC040F900F900F900F90639483E8B3
:101DD0006812CDCF47CE8B8D9C8DAD8DBE8D01967B
:101DE000A11DB11D8B8F9C8FAD8FBE8FC4CF991B52
:101DF00079E004C0991F961708F0961B881F7A9502
:101E0000C9F780950895EE0FFF1F0590F491E02D1E
:101E100009940F931F93CF93DF938230910510F4B1
:101E200082E090E0E0914303F091440330E020E051
:101E3000B0E0A0E0309799F42115310509F447C0CE
:101E4000281B390B24303105C0F58A819B8161152F
:101E5000710571F1FB0193838283FE0111C0408102
:101E600051810281138148175907F8F04817590723
:101E700099F4109761F012960C93129713961C9395
:101E80003296CF01DF91CF911F910F91089500936A
:101E9000430310934403F4CF2115310519F0421781
:101EA000530718F49A01BD01EF01DF01F801C2CF19
:101EB0009093440380934303D0CFFE01E20FF31FBE
:101EC000819391932250310939832883DACF20916D
:101ED000410330914203232B41F420911E013091A4
:101EE0001F01309342032093410320911C01309144
:101EF0001D012115310541F42DB73EB74091200158
:101F000050912101241B350BE0914103F0914203D4
:101F1000E217F307A0F42E1B3F0B2817390778F0C0
:101F2000AC014E5F5F4F2417350748F04E0F5F1F1F
:101F3000509342034093410381939193A2CFF0E0E9
:101F4000E0E09FCFCF93DF930097E9F0FC01329759
:101F500013821282C0914303D0914403DE0130E02A
:101F600020E02097A1F420813181820F931F2091DE
:101F70004103309142032817390709F067C0F093F5
:101F80004203E0934103DF91CF910895DA01AE1748
:101F9000BF0708F040C012964D915C9113979D01C8
:101FA0004115510599F7D9011396FC93EE931297B9
:101FB0004D915D91A40FB51FEA17FB0779F480815D
:101FC00091810296840F951FD90111969C938E934F
:101FD0008281938113969C938E931297B0E0A0E038
:101FE0008A819B810097B9F5FE0181919191E80F5B
:101FF000F91F80914103909142038E179F0719F6B4
:10200000109761F51092440310924303D09342035A
:10201000C0934103B8CFB383A28340815181840F21
:10202000951FA817B90771F44E5F5F4F8D919C9172
:102030001197480F591F5183408312968D919C919F
:10204000938382832115310509F0ADCFF0934403CA
:10205000E093430398CFDE01EC01C2CF13961C92AC
:102060001E921297D3CF8F929F92AF92BF92CF9230
:10207000DF92EF92FF92CF93DF93EC016881798139
:102080008A819B81611571058105910521F464E2C6
:1020900079ED8BE597E02DE133EF41E050E00E94D0
:1020A000301649015A019B01AC01A7EAB1E40E9434
:1020B0004F166B017C01ACEEB4EFA50194010E94B8
:1020C0005D16C60ED71EE81EF91EF7FE06C081E09B
:1020D000C81AD108E10880E8F80AC882D982EA82E1
:1020E000FB82C701B6019F77DF91CF91FF90EF9000
:1020F000DF90CF90BF90AF909F908F9008958F9278
:102100009F92AF92BF92CF92DF92EF92FF92609137
:102110002201709123018091240190912501611584
:1021200071058105910521F464E279ED8BE597E075
:102130002DE133EF41E050E00E94301649015A0191
:102140009B01AC01A7EAB1E40E944F166B017C0130
:10215000ACEEB4EFA50194010E945D16C60ED71E29
:10216000E81EF91EF7FE06C081E0C81AD108E10892
:1021700080E8F80AC0922201D0922301E092240163
:10218000F0922501C701B6019F77FF90EF90DF9095
:10219000CF90BF90AF909F908F9008956093220151
:1021A0007093230180932401909325010895B0E05A
:1021B000A0E0EDEDF0E10C9464165C016B018A0186
:1021C0006115710519F0FB019183808301151105DB
:1021D00051F0C8010297839730F040E030E020E0F2
:1021E00090E0B6C05E01E501F9908F2D90E00E946D
:1021F000F112892BB9F7FDE2FF1256C0F880E50114
:102200002296EE24E3940115110509F4D2C00031A1
:10221000110509F051C020E3F21273C088818F7D4F
:10222000883509F0BAC0F9802296EE2DE26000E10F
:1022300010E0812C912CA12C58E0B52E20E060E01C
:1022400070E0CB012801012E000C66087708F0ED44
:10225000FF0DFA3060F03FEB3F0DF9EC3A3130F012
:102260003FE93F0D3A3108F055C0F9EAFF0DF0178C
:1022700011060CF04FC027FD15C086169706A8065C
:10228000B90678F0A30192010E94FE156F0F711D2F
:10229000811D911D21E0613071058105F0E89F07E6
:1022A00008F02FEFF990D3CF2BE2F21203C0F880A1
:1022B000E5012296E12CA7CF0830110521F1CCF4DD
:1022C000EE2D812C912CA12C40E4B42E023011056E
:1022D00009F4B4CF60E070E080E090E89801012E4E
:1022E000000C440B550B0E940E1649015A01EE2DAD
:1022F000A5CFEE2D0A30110509F462C00031110599
:1023000049F7EE2D94CFEE2D812C912CA12C20E1BC
:10231000B22E94CFC114D10431F0222309F12197B8
:10232000F601D183C08327FF21C06FEF7FEF8FEFCE
:102330009FE7EE2021F060E070E080E090E822E28C
:1023400030E03093460320934503462F372F282F44
:10235000642F732F822FCDB7DEB7E0E10C94801687
:10236000E1FF04C02297F601D183C083EE2041F043
:1023700090958095709561957F4F8F4F9F4FE5CFDA
:1023800097FFE3CF82E290E090934603809345036A
:102390006FEF7FEF8FEF9FE7D8CF90E3F92E011516
:1023A000110509F089CFEE2D30E3F32E08E010E09F
:1023B000ABCFF0E3FF1609F431CFEE2D0AE010E0C9
:1023C0008CEC882E982CA82C8CE0B82E37CFB0E05F
:1023D000A0E0EDEEF1E10C9464165C016B017A0172
:1023E0006115710519F0FB0191838083E114F104FB
:1023F00049F0C7010297839728F060E070E0CB01B5
:1024000092C05E01E5011991812F90E00E94F112C6
:10241000892BB9F71D3209F056C01881E5012296C3
:1024200001E0E114F10409F4A6C0F0E1EF16F104B3
:1024300009F086C0103341F488818F7D883509F01A
:102440007BC019812296026040E1E42EF12C8824A1
:102450008A94982CA82C5FE0B52E20E060E070E014
:10246000CB0127010F2C000C66087708E0EDE10F87
:10247000EA3058F03FEB310FE9EC3A3128F03FE910
:10248000310F3A3198F5E9EAE10FEE151F0474F5C2
:102490002F3FB9F086169706A806B90628F1A301C2
:1024A00092010E94FE152E2F30E050E040E0620FB6
:1024B000731F841F951F6217730784079507A0F089
:1024C00021E01991D3CF1B3219F41881E50122962E
:1024D00000E0A7CF38E0E32EF12C88248A94982CD2
:1024E000A82C2FE1B22EB9CF2FEFEBCFC114D1041E
:1024F00031F02223E9F02197F601D183C08300FF58
:1025000007C090958095709561957F4F8F4F9F4F35
:102510002F3F49F482E290E0909346038093450375
:102520006FEF7FEFCB01CDB7DEB7E0E10C94801603
:1025300001FFE5CF2297E0CF10E3E114F10451F25F
:102540008AE0E816F104E9F0E0E1EE16F10409F49E
:102550007BCFF8E0EF16F10409F4BFCF6FEF7FEF08
:10256000CB0197010F2C000C440B550B0E940E164B
:1025700049015A0172CF103309F45ECF9AE0E92E77
:10258000F12C89E9882E982CA82C89E1B82E65CFEA
:10259000FC0188279927E89421912032E9F329301A
:1025A00010F02E30C8F32B3241F02D3239F46894FC
:1025B00004C00E941213820F911D219120532A30D2
:1025C000C0F31EF4909581959F4F089585FD0C945E
:1025D0004115806291110C94411581568A51D8F7AA
:1025E000089591110C944115803219F0895085504D
:1025F000C8F70895FB01DC014150504048F00590B8
:102600000D920020C9F701C01D9241505040E0F7E3
:102610000895FB01DC0102C001900D924150504031
:10262000D8F708957AE0979F902D879F802D910D80
:1026300011240895AEE0B0E0E0E2F3E10C947016EE
:102640000D891E898F89988D26E02C831A83098332
:1026500097FF02C080E090E801979E838D83AE01D2
:10266000455E5F4F698D7A8DCE0101960E9476138B
:102670004D815E8157FD0AC02F813885421753076F
:102680000CF49A01020F131FF80110822E96E4E059
:102690000C948C16AEE0B0E0E0E5F3E10C9470161B
:1026A0008C01FA0186E08C831A83098377FF02C0CC
:1026B00060E070E8615071097E836D83A901BF01FC
:1026C000CE0101960E9476134D815E8157FD0AC0AE
:1026D0002F813885421753070CF49A01020F131FFC
:1026E000F80110822E96E4E00C948C16ABE0B0E07A
:1026F000ECE7F3E10C9462167C013B018A01FC01DA
:1027000017821682838181FFB9C19AE0292ECE01FA
:1027100001965C01F7019381F30193FD859193FF8D
:1027200081913F01882309F446C1853239F493FD34
:10273000859193FF81913F01853229F4B70190E0A3
:102740000E945A15E7CF912C412C512CFFE1F51531
:1027500038F08B3209F188F4803201F1833221F1B3
:1027600057FC3AC020ED280F2A3040F556FE1FC016
:10277000929C200D1124922E06C08D3291F0803350
:1027800079F7689450F8F30193FD859193FF819157
:102790003F018111DBCF20C0689451F8689452F852
:1027A000F2CF689453F8EFCF689454F8ECCF429C82
:1027B000200D1124422E689455F8E5CF8E3229F46D
:1027C00056FCF9C0689456F8DECF8C3619F468943C
:1027D00057F8D9CF8836B9F2982F9F7D955493300A
:1027E000C0F08336A1F18337C1F1833509F05BC0B6
:1027F000F801C190D1908F01692D70E056FC02C0A4
:102800006FEF7FEFC6010E9444154C01689457F8A2
:102810000AC00C5F1F4F2FE3298388248394912CD7
:102820006501E89457F853FC04C04814190409F0F2
:1028300018F5342C8114910431F5332009F46ACF52
:10284000B70180E290E00E945A153A94F6CFF80161
:10285000808189830E5F1F4FE0CFF801C190D19036
:102860008F01692D70E056FC02C06FEF7FEFC6014B
:102870000E944F154C01D5CFB70180E290E00E9435
:102880005A154A94D2CFF60157FC859157FE819193
:102890006F01B70190E00E945A1531103A94F1E0AF
:1028A0008F1A9108C7CF843619F0893609F074C0A1
:1028B000F80157FE6AC061917191819191918F01E8
:1028C000252D2F76D22E97FF09C090958095709573
:1028D00061957F4F8F4F9F4F6894D7F82AE030E083
:1028E000A5010E948A15C82ECA188C2C5D2CD6FE14
:1028F0000CC0E89450F8C91440F4D4FE05C0D2FCD2
:1029000003C0FD2DFE7E5F2E892C54FE8FC0FE017C
:10291000EC0DF11D8081803309F081C0252D297EC9
:10292000522E852D8870382E53FC8FC050FE89C0E2
:102930009C2C841418F44C0C942C981854FE8BC0C6
:10294000B70180E390E00E945A1552FE09C088E763
:1029500090E051FE02C088E590E0B7010E945A1550
:10296000C91408F484C0CA94D12C9FEFC91AD90A9B
:10297000CA0CDB1CF60182916F01B70190E00E9446
:102980005A15AC14BD04B1F758CF61917191072E5F
:10299000000C880B990B93CFD52CE894D4F82AE03F
:1029A00030E0853739F1952D997FD92E8F3601F199
:1029B00048F48835A9F0F701868197812B96E2E1EA
:1029C0000C947E16803749F08837A9F7D4FE02C0F0
:1029D0006894D2F820E130E00DC06894D4F8F6CFC6
:1029E00054FE03C0E92FE660DE2E20E132E002C093
:1029F00028E030E0F801D7FE0DC06191719181911E
:102A000091918F01A5010E948A15C82ECA18E894D9
:102A1000D7F86BCF6191719190E080E0F2CF52FCDA
:102A200002C083947ECF839483947BCF852D867858
:102A300009F477CFF6CFB70180E290E00E945A15F3
:102A400083948414C0F3312C79CF342C3818841437
:102A500008F474CFF8CF852D867809F481CF8BE206
:102A600051FE80E257FC8DE2B70190E077CFB701CD
:102A700080E390E00E945A159A9472CF8FEF9FEFF7
:102A80009DCF992788270895FC01059061507040DB
:102A90000110D8F7809590958E0F9F1F0895FC0127
:102AA0006150704001900110D8F7809590958E0F7D
:102AB0009F1F08950F931F93CF93DF93182F092F14
:102AC000EB018B8181FD09C01FEF0FEF812F902F4C
:102AD000DF91CF911F910F91089582FF14C02E8135
:102AE0003F818C819D81281739073CF4E881F98169
:102AF000CF0101969983888310838E819F810196EF
:102B00009F838E83E3CFE885F985812F0995892BF3
:102B1000A1F3DACFFA01AA27283051F1203181F14F
:102B2000E8946F936E7F6E5F7F4F8F4F9F4FAF4FD5
:102B3000B1E03ED0B4E03CD0670F781F891F9A1FE8
:102B4000A11D680F791F8A1F911DA11D6A0F711D9C
:102B5000811D911DA11D20D009F468943F912AE0A8
:102B6000269F11243019305D3193DEF6CF01089590
:102B7000462F4770405D4193B3E00FD0C9F7F6CFC1
:102B8000462F4F70405D4A3318F0495D31FD405289
:102B9000419302D0A9F7EACFB4E0A695979587951F
:102BA00077956795BA95C9F70097610571050895FE
:102BB0009B01AC010A2E06945795479537952795AA
:102BC000BA95C9F7620F731F841F951FA01D089542
:102BD000F999FECF92BD81BDF89A992780B50895E5
:102BE000262FF999FECF1FBA92BD81BD20BD0FB629
:102BF000F894FA9AF99A0FBE01960895DB018F9323
:102C00009F930E944F16BF91AF91A29F800D911D7F
:102C1000A39F900DB29F900D11240895A1E21A2E4A
:102C2000AA1BBB1BFD010DC0AA1FBB1FEE1FFF1F70
:102C3000A217B307E407F50720F0A21BB30BE40BC0
:102C4000F50B661F771F881F991F1A9469F7609507
:102C50007095809590959B01AC01BD01CF010895C1
:102C6000052E97FB1EF400940E94471657FD07D0CF
:102C70000E940E1607FC03D04EF40C944716509594
:102C80004095309521953F4F4F4F5F4F0895909558
:102C90008095709561957F4F8F4F9F4F08950E944B
:102CA0009916A59F900DB49F900DA49F800D911D26
:102CB00011240895B7FF0C944F160E944F16821BE3
:102CC000930B08952F923F924F925F926F927F9253
:102CD0008F929F92AF92BF92CF92DF92EF92FF922C
:102CE0000F931F93CF93DF93CDB7DEB7CA1BDB0BD8
:102CF0000FB6F894DEBF0FBECDBF09942A8839887D
:102D000048885F846E847D848C849B84AA84B98483
:102D1000C884DF80EE80FD800C811B81AA81B9818F
:102D2000CE0FD11D0FB6F894DEBF0FBECDBFED01A3
:102D30000895A29FB001B39FC001A39F700D811D94
:102D40001124911DB29F700D811D1124911D0895B4
:042D5000F894FFCF25
:102D54003D014B0156015F017B018C0194018C0103
:102D64009F01B101C4012E03DE01E4010000470309
:102D74002000010000002553002553002563002591
:102D84002D3330732025730D0A00255300546572CA
:102D94006D696E616C206E616D650045727563735B
:102DA4006972303037004163636F756E7473004528
:102DB4006E61626C65642028322F32292C204163B5
:102DC400746976652028322F3229004F706572614C
:102DD40074696F6E616C206D6F646500456E61622D
:102DE4006C6564004465627567206D6F64650050AE
:102DF4006879736963616C206C6F636174696F6E69
:102E04000044656C66742C204E65746865726C6150
:102E14006E647300557365722061757468656E74B1
:102E240069636174696F6E20746F6B656E004865C9
:102E34006C6C6F00576F726C642100256C780059BC
:102E44006F7572206E6F6E6365206973202530384C
:102E54006C780D0A00450025700D0A004C656E67FC
:102E640074682025780D0A0057656C636F6D6520C2
:102E7400746F2045727563736972204943532074DB
:102E840065726D696E616C0D0A002573005072697C
:102E94006E74696E67202564207661726961626C64
:102EA40065730D0A00436F6D6D616E642025732098
:102EB400697320696E76616C69640D0A0056616CF1
:102EC400766520636C6F7365640D0A0056616C76D9
:102ED40065206F70656E0D0A0056616C766520631F
:102EE40068616E6765640D0A00526574726976697B
:102EF4006E67207468652041646D696E204B657946
:042F0400002E00009B
:1035000052486D652B2043306E376163375F7535E8
:103510000D0A43616C63756C6174696E6720696E36
:10352000646578000000000000000D0A43686563D0
:103530006B696E67204B65792043524300000000A1
:10354000000000000D0A53687566666C696E67209E
:1035500062697473000000000000000000000D0AA2
:103560004D6F72652073687566666C696E670000E2
:1035700000000000000000000D0A4576656E206D19
:103580006F72652073687566666C696E67210000EE
:1035900000000D0A446573687566666C696E672085
:1035A0006269747300000000000000000D0A45729B
:1035B000726F72212044697A7A79206269742100DD
:1035C0000000000000000D0A4170706C79696E67A0
:1035D0002044696D656E68796472696E6174650016
:1035E0000D0A5468652062697420646F65736E7497
:1035F00020726573706F6E6421000D0A416E792030
:10360000646F63746F7220696E20726F6F6D3F001C
:10361000000000000D0A426974207265636F7665D0
:103620007265642E5072696E74696E6700000D0ACF
:10363000546865206B657920697300000000000004
:1036400000000000000000000D0A4D5541484148AF
:1036500041414821212054524F4C4C4544210D0AF0
:02366000000068
:00000001FF
